:100000000C942A000C9434000C9434000C943400AA
:100010000C9434000C9434000C9434000C94340090
:100020000C9434000C9434000C9434000C94340080
:100030000C9434000C9434000C9434000C94340070
:100040000C9434000C9434000C9434000C94340060
:100050000C94340011241FBECFE5D8E0DEBFCDBF25
:100060000E944B020C94C8020C9400003E9A3F98E8
:100070003D98389A39983A983B983C98359A309AF6
:10008000319A329A3398379A0895369A349BFECF34
:1000900080E090E00895442379F1413009F05FC099
:1000A000813079F028F08230A9F08330E1F00895B2
:1000B0002AB381E090E001C0880F6A95EAF7822BAD
:1000C0002CC027B381E090E001C0880F6A95EAF761
:1000D000822B2EC024B381E090E001C0880F6A9586
:1000E000EAF7822B30C021B381E090E001C0880F95
:1000F0006A95EAF7822B32C0813089F028F082308D
:10010000C9F0833011F108952AB381E090E001C075
:10011000880F6A95EAF7809582238ABB089527B3F2
:1001200081E090E001C0880F6A95EAF7809582230C
:1001300087BB089524B381E090E001C0880F6A95E1
:10014000EAF78095822384BB089521B381E090E093
:1001500001C0880F6A95EAF78095822381BB0895D4
:10016000442379F1413009F05FC0813079F028F003
:100170008230A9F08330E1F008952BB381E090E064
:1001800001C0880F6A95EAF7822B2CC028B381E062
:1001900090E001C0880F6A95EAF7822B2EC025B344
:1001A00081E090E001C0880F6A95EAF7822B30C0A9
:1001B00022B381E090E001C0880F6A95EAF7822BB4
:1001C00032C0813089F028F08230C9F0833011F1DB
:1001D00008952BB381E090E001C0880F6A95EAF79B
:1001E000809582238BBB089528B381E090E001C005
:1001F000880F6A95EAF78095822388BB089525B316
:1002000081E090E001C0880F6A95EAF7809582232B
:1002100085BB089522B381E090E001C0880F6A9504
:10022000EAF78095822382BB0895CF93C82F40E0E0
:1002300061E081E00E94B00040E062E081E00E9465
:10024000B00040E063E081E00E94B0008BB39C2FDF
:10025000907F8F70892B8BBB41E063E081E00E942F
:10026000B0008FE99FE00197F1F700C0000040E087
:1002700063E081E00E94B0002BB330E1C39FC00176
:100280001124922F9F70892B8BBB41E063E081E0AA
:100290000E94B0008FE99FE00197F1F700C00000D5
:1002A00040E063E081E00E94B0008FE19EE40197AE
:1002B000F1F700C00000CF91089541E061E081E0D6
:1002C0000E944B0041E062E081E00E944B0041E06F
:1002D00063E081E00E944B0041E064E080E00E9426
:1002E0004B0041E065E080E00E944B0041E066E0A9
:1002F00080E00E944B0041E067E080E00E944B00FC
:100300002FEF81EE94E0215080409040E1F700C053
:10031000000083E30E94150182E30E94150188E238
:100320000E9415018CE00E94150181E00E941501D8
:1003300086E00E94150182E00C941501CF93C82F2E
:1003400041E061E081E00E94B00040E062E081E0D5
:100350000E94B00040E063E081E00E94B0008BB3F7
:100360009C2F907F8F70892B8BBB41E063E081E0F5
:100370000E94B0008FE99FE00197F1F700C00000F4
:1003800040E063E081E00E94B0002BB330E1C39F06
:10039000C0011124922F9F70892B8BBB41E063E039
:1003A00081E00E94B0008FE99FE00197F1F700C063
:1003B000000040E063E081E00E94B0008FE19EE435
:1003C0000197F1F700C00000CF91089581E00C94EF
:1003D00015014F925F926F927F928F929F92AF9290
:1003E000BF92CF92DF92EF92FF924B015C0197FF99
:1003F0000BC08DE20E949E01B094A09490948094D2
:10040000811C911CA11CB11C61E070E080E090E0B7
:100410003AE0432E512C612C712C81149104A104DB
:10042000B104A9F0AAE0B0E09B01AC010E948C02EB
:100430006B017C01C501B401A30192010E946D0210
:100440006C0D7D1D8E1D9F1D49015A01E6CF2AE0CE
:10045000C22ED12CE12CF12C623071058105910561
:100460006CF0A70196010E946D0249015A0180E3D8
:10047000860F0E949E01B401C501EECFFF90EF9060
:10048000DF90CF90BF90AF909F908F907F906F90B4
:100490005F904F9008950E945D010E945A020E9451
:1004A0005C02EC010E94E601BE0180E090E00E9447
:1004B000E901F5CF0C9436000E94450024EF31E0AD
:1004C000AC01429FC001439F900D529F900D11249B
:1004D000892F8695869590E00895052E97FB1EF44A
:1004E00000940E94840257FD07D00E94970207FCE7
:1004F00003D04EF40C94840250954095309521958C
:100500003F4F4F4F5F4F089590958095709561953F
:100510007F4F8F4F9F4F08950E94B902A59F900D66
:10052000B49F900DA49F800D911D11240895A1E208
:100530001A2EAA1BBB1BFD010DC0AA1FBB1FEE1F5D
:10054000FF1FA217B307E407F50720F0A21BB30BA8
:10055000E40BF50B661F771F881F991F1A9469F724
:1005600060957095809590959B01AC01BD01CF0180
:100570000895A29FB001B39FC001A39F700D811D7C
:100580001124911DB29F700D811D1124911D08959C
:04059000F894FFCF0D
:00000001FF
