S00D000054696D65722E7372656316
S11300000C942A000C943C000C943C000C943C008E
S11300100C943C000C943C000C943C000C943C006C
S11300200C943C000C943C000C943C000C94BA00DE
S11300300C943C000C943C000C943C000C943C004C
S11300400C943C000C943C000C943C000C943C003C
S11300500C943C0011241FBECFE5D8E0DEBFCDBF19
S113006020E0A0E6B0E001C01D92AC36B207E1F793
S11300700E94AD000C9488010C940000442379F193
S1130080413009F05FC0813079F028F08230A9F066
S11300908330E1F008952AB381E090E001C0880F35
S11300A06A95EAF7822B2CC027B381E090E001C067
S11300B0880F6A95EAF7822B2EC024B381E090E082
S11300C001C0880F6A95EAF7822B30C021B381E022
S11300D090E001C0880F6A95EAF7822B32C0813024
S11300E089F028F08230C9F0833011F108952AB3E1
S11300F081E090E001C0880F6A95EAF78095822339
S11301008ABB089527B381E090E001C0880F6A9507
S1130110EAF78095822387BB089524B381E090E0B9
S113012001C0880F6A95EAF78095822384BB0895FD
S113013021B381E090E001C0880F6A95EAF78095C9
S1130140822381BB089541E062E082E00C943E008A
S113015095B384E0892785BB08950E94A3000E947B
S1130160090164EF71E080E090E00E9416010E94B2
S11301706401FFCF1F920F920FB60F9211242F9399
S11301803F934F935F936F937F938F939F93AF931B
S1130190BF93EF93FF938091600090916100A091D1
S11301A06200B09163000196A11DB11D80936000AF
S11301B090936100A0936200B09363004091640047
S11301C050916500609166007091670084179507EF
S11301D0A607B70769F40E94A80010926000109265
S11301E0610010926200109263008091680082BFE7
S11301F0FF91EF91BF91AF919F918F917F916F91FB
S11302005F914F913F912F910F900FBE0F901F90D0
S1130210189583B7877F83BF83B78F7B83BF8FB7DF
S113022080688FBF89B7816089BF08950F931F933A
S11302309B01AC01A8EEB3E00E946E018B019C010E
S11302404AE036952795179507954A95D1F7009377
S11302506400109365002093660030936700DC010E
S1130260CB0152E0B695A795979587955A95D1F706
S11302709927AA27BB2700E011E020E030E0B9016C
S1130280A801481B590B6A0B7B0B409368005093E1
S1130290690060936A0070936B0042BF80916400B0
S11302A090916500A0916600B09167000196A11D30
S11302B0B11D8093640090936500A0936600B09391
S11302C067001F910F91089583B7816083BF83B73F
S11302D0826083BF83B78B7F83BF08950E947901B7
S11302E0A59F900DB49F900DA49F800D911D112486
S11302F00895A29FB001B39FC001A39F700D811DFB
S11303001124911DB29F700D811D1124911D08951A
S1070310F894FFCF8B
S9030000FC
