:100000000C942A000C943C000C943C000C943C0092
:100010000C943C000C943C000C943C000C943C0070
:100020000C943C000C943C000C943C000C94C700D5
:100030000C943C000C943C000C943C000C943C0050
:100040000C943C000C943C000C943C000C943C0040
:100050000C943C0011241FBECFE5D8E0DEBFCDBF1D
:1000600020E0A0E6B0E001C01D92A936B207E1F79A
:100070000E94BA000C9487010C9400004423B9F14B
:10008000413009F06BC0813089F028F08230C9F02E
:10009000833011F108952AB381E090E002C0880F07
:1000A000991F6A95E2F7822B8ABB089527B381E0F6
:1000B00090E002C0880F991F6A95E2F7822B87BBF8
:1000C000089524B381E090E002C0880F991F6A95DB
:1000D000E2F7822B84BB089521B381E090E002C057
:1000E000880F991F6A95E2F7822B81BB08958130B2
:1000F00091F028F08230D9F0833029F108952AB3A5
:1001000081E090E002C0880F991F6A95E2F7809520
:1001100082238ABB089527B381E090E002C0880F54
:10012000991F6A95E2F78095822387BB089524B3CF
:1001300081E090E002C0880F991F6A95E2F78095F0
:10014000822384BB089521B381E090E002C0880F30
:10015000991F6A95E2F78095822381BB089541E05B
:1001600062E082E00E943E00089595B384E0892712
:1001700085BB08950E94AF000E94050168EE73E000
:1001800080E090E00E9412010E946301FFCF1F9265
:100190000F920FB60F9211242F933F934F935F93BB
:1001A0006F937F938F939F93AF93BF93EF93FF933F
:1001B000809160008F5F8093600090E0A0E0B0E0ED
:1001C0004091610050916200609163007091640001
:1001D00084179507A607B70739F40E94B500109257
:1001E00060008091650082BFFF91EF91BF91AF9158
:1001F0009F918F917F916F915F914F913F912F913F
:100200000F900FBE0F901F90189583B7877F83BF05
:1002100083B78F7B83BF8FB780688FBF89B78160BB
:1002200089BF08950F931F939B01AC01A8EEB3E023
:100230000E946D018B019C010F2EFAE036952795E7
:1002400017950795FA95D1F7F02D0093610010935B
:1002500062002093630030936400DC01CB01B6950B
:10026000A79597958795B695A7959795879599277B
:10027000AA27BB2700E011E020E030E0B901A80187
:10028000481B590B6A0B7B0B40936500509366002B
:10029000609367007093680042BF80916100909105
:1002A0006200A0916300B09164000196A11DB11D90
:1002B0008093610090936200A0936300B093640008
:1002C0001F910F91089583B7816083BF83B78260C8
:1002D00083BF83B78B7F83BF08950E947801A59F5A
:1002E000900DB49F900DA49F800D911D1124089531
:1002F000A29FB001B39FC001A39F700D811D112467
:10030000911DB29F700D811D1124911D0895F894C7
:02031000FFCF1D
:00000001FF
