S01300004C43445F50726F6A6563742E7372656308
S11300000C942A000C943F000C943F000C943F0085
S11300100C943F000C943F000C943F000C943F0060
S11300200C943F000C943F000C943F000C943F0050
S11300300C943F000C943F000C943F000C943F0040
S11300400C943F000C943F000C943F000C943F0030
S11300500C943F0011241FBECFE5D8E0DEBFCDBF16
S113006010E0A0E6B0E0E0E3F4E002C005900D92F9
S1130070A837B107D9F70E9403020C9416020C9416
S11300800000442379F1413009F05FC0813079F0F8
S113009028F08230A9F08330E1F008952AB381E09A
S11300A090E001C0880F6A95EAF7822B2CC027B331
S11300B081E090E001C0880F6A95EAF7822B2EC098
S11300C024B381E090E001C0880F6A95EAF7822B9F
S11300D030C021B381E090E001C0880F6A95EAF74F
S11300E0822B32C0813089F028F08230C9F083300D
S11300F011F108952AB381E090E001C0880F6A9558
S1130100EAF7809582238ABB089527B381E090E0C3
S113011001C0880F6A95EAF78095822387BB08950A
S113012024B381E090E001C0880F6A95EAF78095D6
S1130130822384BB089521B381E090E001C0880F3D
S11301406A95EAF78095822381BB0895442379F167
S1130150413009F05FC0813079F028F08230A9F095
S11301608330E1F008952BB381E090E001C0880F63
S11301706A95EAF7822B2CC028B381E090E001C095
S1130180880F6A95EAF7822B2EC025B381E090E0B0
S113019001C0880F6A95EAF7822B30C022B381E050
S11301A090E001C0880F6A95EAF7822B32C0813053
S11301B089F028F08230C9F0833011F108952BB30F
S11301C081E090E001C0880F6A95EAF78095822368
S11301D08BBB089528B381E090E001C0880F6A9535
S11301E0EAF78095822388BB089525B381E090E0E7
S11301F001C0880F6A95EAF78095822385BB08952C
S113020022B381E090E001C0880F6A95EAF78095F7
S1130210822382BB0895CF93C82F40E061E081E040
S11302200E94A60040E062E081E00E94A60040E057
S113023063E081E00E94A6008BB39C2F907F8F70B7
S1130240892B8BBB41E063E081E00E94A6008FE92B
S11302509FE00197F1F700C0000040E063E081E017
S11302600E94A6002BB330E1C39FC0011124922F3A
S11302709F70892B8BBB41E063E081E00E94A60064
S11302808FE99FE00197F1F700C0000040E063E0D0
S113029081E00E94A6008FE19EE40197F1F700C07F
S11302A00000CF91089541E061E081E00E944100A7
S11302B041E062E081E00E94410041E063E081E0CE
S11302C00E94410041E064E080E00E94410041E07E
S11302D065E080E00E94410041E066E080E00E9429
S11302E0410041E067E080E00E9441002FEF81EE91
S11302F094E0215080409040E1F700C0000083E387
S11303000E940B0182E30E940B0188E20E940B0110
S11303108CE00E940B0181E00E940B0186E00E94A8
S11303200B0182E00C940B01CF93C82F41E061E0F4
S113033081E00E94A60040E062E081E00E94A60005
S113034040E063E081E00E94A6008BB39C2F907F85
S11303508F70892B8BBB41E063E081E00E94A60093
S11303608FE99FE00197F1F700C0000040E063E0EF
S113037081E00E94A6002BB330E1C39FC001112489
S1130380922F9F70892B8BBB41E063E081E00E9438
S1130390A6008FE99FE00197F1F700C0000040E05C
S11303A063E081E00E94A6008FE19EE40197F1F7EB
S11303B000C00000CF9108950F931F93CF938C0139
S11303C0C0E0F801EC0FF11D8081882321F00E9428
S11303D09401CF5FF6CFCF911F910F910895CF93E2
S11303E0DF9300D0CDB7DEB790E8998390EC9A8381
S11303F0FE01E80FF11D8181860F0F900F90DF91B0
S1130400CF910C940B010E94530180E690E00E946E
S1130410DC0187E690E00E94DC0160E081E00E945C
S1130420EF018EE690E00E94DC01FFCFF894FFCF4D
S1130430464C4F524F2000334159455A20005954DD
S10B0440474157455A20000012
S9030000FC
