:100000000C942A000C9434000C9434000C943400AA
:100010000C9434000C9434000C9434000C94340090
:100020000C9434000C9434000C9434000C94340080
:100030000C9434000C9434000C9434000C94340070
:100040000C9434000C9434000C9434000C94340060
:100050000C94340011241FBECFE5D8E0DEBFCDBF25
:100060000E94D1010C94F2010C940000442379F118
:10007000413009F05FC0813079F028F08230A9F07A
:100080008330E1F008952AB381E090E001C0880F49
:100090006A95EAF7822B2CC027B381E090E001C07B
:1000A000880F6A95EAF7822B2EC024B381E090E096
:1000B00001C0880F6A95EAF7822B30C021B381E036
:1000C00090E001C0880F6A95EAF7822B32C0813038
:1000D00089F028F08230C9F0833011F108952AB3F5
:1000E00081E090E001C0880F6A95EAF7809582234D
:1000F0008ABB089527B381E090E001C0880F6A951C
:10010000EAF78095822387BB089524B381E090E0CD
:1001100001C0880F6A95EAF78095822384BB089511
:1001200021B381E090E001C0880F6A95EAF78095DD
:10013000822381BB0895442379F1413009F05FC0E7
:10014000813079F028F08230A9F08330E1F0089511
:100150002BB381E090E001C0880F6A95EAF7822B0B
:100160002CC028B381E090E001C0880F6A95EAF7BF
:10017000822B2EC025B381E090E001C0880F6A95E4
:10018000EAF7822B30C022B381E090E001C0880FF3
:100190006A95EAF7822B32C0813089F028F08230EC
:1001A000C9F0833011F108952BB381E090E001C0D4
:1001B000880F6A95EAF7809582238BBB089528B350
:1001C00081E090E001C0880F6A95EAF7809582236C
:1001D00088BB089525B381E090E001C0880F6A953F
:1001E000EAF78095822385BB089522B381E090E0F1
:1001F00001C0880F6A95EAF78095822382BB089533
:10020000CF93C82F40E061E081E00E949B0040E076
:1002100062E081E00E949B0040E063E081E00E9498
:100220009B008BB39C2F907F8F70892B8BBB41E001
:1002300063E081E00E949B008FE99FE00197F1F766
:1002400000C0000040E063E081E00E949B002BB30F
:1002500030E1C39FC0011124922F9F70892B8BBB6B
:1002600041E063E081E00E949B008FE99FE00197FD
:10027000F1F700C0000040E063E081E00E949B00D5
:100280008FE19EE40197F1F700C00000CF9108953F
:1002900041E061E081E00E94360041E062E081E0FF
:1002A0000E94360041E063E081E00E94360041E0B8
:1002B00064E080E00E94360041E065E080E00E945A
:1002C000360041E066E080E00E94360041E067E0F1
:1002D00080E00E9436002FEF81EE94E021508040B4
:1002E0009040E1F700C0000083E30E94000182E338
:1002F0000E94000188E20E9400018CE00E9400013F
:1003000081E00E94000186E00E94000182E00C94DE
:100310000001CF93C82F41E061E081E00E949B0083
:1003200040E062E081E00E949B0040E063E081E009
:100330000E949B008BB39C2F907F8F70892B8BBB6F
:1003400041E063E081E00E949B008FE99FE001971C
:10035000F1F700C0000040E063E081E00E949B00F4
:100360002BB330E1C39FC0011124922F9F70892BC2
:100370008BBB41E063E081E00E949B008FE99FE03E
:100380000197F1F700C0000040E063E081E00E94C7
:100390009B008FE19EE40197F1F700C00000CF9130
:1003A00008950E94DC010E9448010E94EE0188230A
:1003B000E1F30E948901F9CF40E060E083E00E9410
:1003C000360041E061E083E00E943600539A549A7F
:1003D00080B5866880BD83E389B908955F9BFECFB1
:0803E0008CB10895F894FFCFE1
:00000001FF
