:100000000C942A000C943F000C943F000C943F0089
:100010000C943F000C943F000C943F000C943F0064
:100020000C943F000C943F000C943F000C943F0054
:100030000C943F000C943F000C943F000C943F0044
:100040000C943F000C943F000C943F000C943F0034
:100050000C943F0011241FBECFE5D8E0DEBFCDBF1A
:1000600010E0A0E6B0E0E8E2F4E002C005900D92F6
:10007000A636B107D9F70E940B020C9412020C9419
:1000800000004423B9F1413009F06BC0813089F0A0
:1000900028F08230C9F0833011F108952AB381E04D
:1000A00090E002C0880F991F6A95E2F7822B8ABB05
:1000B000089527B381E090E002C0880F991F6A95E8
:1000C000E2F7822B87BB089524B381E090E002C061
:1000D000880F991F6A95E2F7822B84BB089521B39C
:1000E00081E090E002C0880F991F6A95E2F7822BA9
:1000F00081BB0895813091F028F08230D9F08330AF
:1001000029F108952AB381E090E002C0880F991F79
:100110006A95E2F7809582238ABB089527B381E030
:1001200090E002C0880F991F6A95E2F780958223BC
:1001300087BB089524B381E090E002C0880F991F27
:100140006A95E2F78095822384BB089521B381E00C
:1001500090E002C0880F991F6A95E2F7809582238C
:1001600081BB08954423B9F1413009F06BC081305F
:1001700089F028F08230C9F0833011F108952BB353
:1001800081E090E002C0880F991F6A95E2F7822B08
:100190008BBB089528B381E090E002C0880F991FBF
:1001A0006A95E2F7822B88BB089525B381E090E041
:1001B00002C0880F991F6A95E2F7822B85BB0895CC
:1001C00022B381E090E002C0880F991F6A95E2F7A0
:1001D000822B82BB0895813091F028F08230D9F0D3
:1001E000833029F108952BB381E090E002C0880F9D
:1001F000991F6A95E2F7809582238BBB089528B3F7
:1002000081E090E002C0880F991F6A95E2F780951F
:10021000822388BB089525B381E090E002C0880F57
:10022000991F6A95E2F78095822385BB089522B3D2
:1002300081E090E002C0880F991F6A95E2F78095EF
:10024000822382BB0895CF93C82F40E061E081E014
:100250000E94B20040E062E081E00E94B20040E013
:1002600063E081E00E94B2008BB39C2F907F8F707F
:10027000892B8BBB4FEF63E081E00E94B2008FE9D6
:100280009FE00197F1F700C0000040E063E081E0EB
:100290000E94B2002BB330E1C39FC0011124922F02
:1002A0009F70892B8BBB4FEF63E081E00E94B2000F
:1002B0008FE99FE00197F1F700C0000040E063E0A4
:1002C00081E00E94B2008FE19EE40197F1F700C047
:1002D0000000CF91089541E061E081E00E9441007B
:1002E00041E062E081E00E94410041E063E081E0A2
:1002F0000E94410041E064E080E00E94410041E052
:1003000065E080E00E94410041E066E080E00E94FC
:10031000410041E067E080E00E9441002FEF81EE64
:1003200094E0215080409040E1F700C0000083E35A
:100330000E94230182E30E94230188E20E9423019C
:100340008CE00E94230181E00E94230186E00E944C
:10035000230182E00E9423010895CF93C82F4FEF1D
:1003600061E081E00E94B20040E061E081E00E9433
:10037000B20040E061E081E00E94B2008BB39C2FAC
:10038000907F8F70892B8BBB4FEF63E081E00E94E1
:10039000B2008FE99FE00197F1F700C0000040E054
:1003A00063E081E00E94B2002BB330E1C39FC00143
:1003B0001124922F9F70892B8BBB4FEF63E081E05C
:1003C0000E94B2008FE99FE00197F1F700C00000A2
:1003D00040E063E081E00E94B2008FE19EE401977B
:1003E000F1F700C00000CF9108950F931F93CF93B2
:1003F000FC018081882359F08F01C0E00E94AD018B
:10040000CF5FF801EC0FF11D80818111F7CFCF9103
:100410001F910F9108950E946B0180E690E00E9469
:08042000F501FFCFF894FFCFB6
:0604280048656C6C6F00DA
:00000001FF
