:100000000C942A000C943C000C943C000C943C0092
:100010000C943C000C943C000C943C000C94830128
:100020000C943C000C943C000C943C000C94340167
:100030000C943C000C943C000C943C000C943C0050
:100040000C943C000C943C000C943C000C943C0040
:100050000C943C0011241FBECFE5D8E0DEBFCDBF1D
:1000600020E0A0E6B0E001C01D92A037B207E1F7A2
:100070000E942B010C94FD010C94000041E063E010
:1000800082E00E945C0041E064E082E00E945C004B
:100090000C94C6019AE0989F802D11240C94C801FD
:1000A00041E063E082E00E94C10040E064E082E061
:1000B0000E94C1000C94D101442379F1413009F030
:1000C0005FC0813079F028F08230A9F08330E1F010
:1000D00008952AB381E090E001C0880F6A95EAF79D
:1000E000822B2CC027B381E090E001C0880F6A9575
:1000F000EAF7822B2EC024B381E090E001C0880F84
:100100006A95EAF7822B30C021B381E090E001C00C
:10011000880F6A95EAF7822B32C0813089F028F087
:100120008230C9F0833011F108952AB381E090E064
:1001300001C0880F6A95EAF7809582238ABB0895EB
:1001400027B381E090E001C0880F6A95EAF78095B7
:10015000822387BB089524B381E090E001C0880F1B
:100160006A95EAF78095822384BB089521B381E0E4
:1001700090E001C0880F6A95EAF78095822381BBE1
:100180000895442379F1413009F05FC0813079F05E
:1001900028F08230A9F08330E1F008952BB381E09C
:1001A00090E001C0880F6A95EAF7822B2CC028B333
:1001B00081E090E001C0880F6A95EAF7822B2EC09B
:1001C00025B381E090E001C0880F6A95EAF7822BA1
:1001D00030C022B381E090E001C0880F6A95EAF751
:1001E000822B32C0813089F028F08230C9F0833010
:1001F00011F108952BB381E090E001C0880F6A955A
:10020000EAF7809582238BBB089528B381E090E0C4
:1002100001C0880F6A95EAF78095822388BB08950C
:1002200025B381E090E001C0880F6A95EAF78095D8
:10023000822385BB089522B381E090E001C0880F3E
:100240006A95EAF78095822382BB089595B384E08E
:10025000892785BB08950E943E008AE090E00E94B5
:100260004A000E945000FFCF1F920F920FB60F92CC
:1002700011242F933F934F935F936F937F938F93AB
:100280009F93AF93BF93EF93FF93809164009091FE
:100290006500A0916600B09167000196A11DB11D97
:1002A0008093640090936500A0936600B09367000C
:1002B000409168005091690060916A0070916B00F4
:1002C00084179507A607B70769F40E9426011092C4
:1002D0006400109265001092660010926700809191
:1002E0006C0082BFFF91EF91BF91AF919F918F9171
:1002F0007F916F915F914F913F912F910F900FBE22
:100300000F901F9018951F920F920FB60F92112405
:100310002F933F934F935F936F937F938F939F930D
:10032000AF93BF93EF93FF93809160009091610032
:10033000A0916200B09163000196A11DB11D809350
:10034000600090936100A0936200B09363000197F6
:10035000A105B10551F40E9426011092600010928F
:1003600061001092620010926300FF91EF91BF91C3
:10037000AF919F918F917F916F915F914F913F913D
:100380002F910F900FBE0F901F901895BB9A089554
:10039000982F80E064E670E00E94D50161506CBF48
:1003A000089583B7826083BF089597FB072E16F4E4
:1003B000009407D077FD09D00E94E90107FC05D021
:1003C0003EF4909581959F4F0895709561957F4F6C
:1003D0000895AA1BBB1B51E107C0AA1FBB1FA6178C
:1003E000B70710F0A61BB70B881F991F5A95A9F7DE
:0E03F00080959095BC01CD010895F894FFCF43
:00000001FF
