:100000000C942A000C943F000C943F000C943F0089
:100010000C943F000C943F000C943F000C943F0064
:100020000C943F000C943F000C943F000C943F0054
:100030000C943F000C943F000C943F000C943F0044
:100040000C943F000C943F000C943F000C943F0034
:100050000C943F0011241FBECFE5D8E0DEBFCDBF1A
:1000600010E0A0E6B0E0E8EEF5E002C005900D92E9
:10007000A037B107D9F70E94E7020C94F2020C9462
:1000800000004423B9F1413009F06BC0813089F0A0
:1000900028F08230C9F0833011F108952AB381E04D
:1000A00090E002C0880F991F6A95E2F7822B8ABB05
:1000B000089527B381E090E002C0880F991F6A95E8
:1000C000E2F7822B87BB089524B381E090E002C061
:1000D000880F991F6A95E2F7822B84BB089521B39C
:1000E00081E090E002C0880F991F6A95E2F7822BA9
:1000F00081BB0895813091F028F08230D9F08330AF
:1001000029F108952AB381E090E002C0880F991F79
:100110006A95E2F7809582238ABB089527B381E030
:1001200090E002C0880F991F6A95E2F780958223BC
:1001300087BB089524B381E090E002C0880F991F27
:100140006A95E2F78095822384BB089521B381E00C
:1001500090E002C0880F991F6A95E2F7809582238C
:1001600081BB08954423B9F1413009F06BC081305F
:1001700089F028F08230C9F0833011F108952BB353
:1001800081E090E002C0880F991F6A95E2F7822B08
:100190008BBB089528B381E090E002C0880F991FBF
:1001A0006A95E2F7822B88BB089525B381E090E041
:1001B00002C0880F991F6A95E2F7822B85BB0895CC
:1001C00022B381E090E002C0880F991F6A95E2F7A0
:1001D000822B82BB0895813091F028F08230D9F0D3
:1001E000833029F108952BB381E090E002C0880F9D
:1001F000991F6A95E2F7809582238BBB089528B3F7
:1002000081E090E002C0880F991F6A95E2F780951F
:10021000822388BB089525B381E090E002C0880F57
:10022000991F6A95E2F78095822385BB089522B3D2
:1002300081E090E002C0880F991F6A95E2F78095EF
:10024000822382BB0895813079F028F08230A9F0B2
:100250008330E1F024C089B390E002C09595879582
:100260006A95E2F78170089586B390E002C0959593
:1002700087956A95E2F78170089583B390E002C094
:10028000959587956A95E2F78170089580B390E01F
:1002900002C0959587956A95E2F78170089580E090
:1002A0000895813089F028F08230C9F0833011F14F
:1002B00008952BB381E090E002C0880F991F6A95E2
:1002C000E2F7822B8BBB089528B381E090E002C057
:1002D000880F991F6A95E2F7822B88BB089525B392
:1002E00081E090E002C0880F991F6A95E2F7822BA7
:1002F00085BB089522B381E090E002C0880F991F6A
:100300006A95E2F7822B82BB089541E060E083E0CA
:100310000E94410041E061E083E00E94410041E031
:1003200062E083E00E94410041E063E083E00E94DC
:10033000410040E064E083E00E94410040E065E06D
:1003400083E00E94410040E066E083E00E944100BB
:1003500040E067E083E00E94410064E083E00E94A7
:10036000510165E083E00E94510166E083E00E9454
:10037000510167E083E00E94510141E060E083E0C9
:100380000E94B20041E061E083E00E94B20041E0DF
:1003900062E083E00E94B20041E063E083E00E94FB
:1003A000B2000895DF92EF92FF920F931F93CF93C5
:1003B000DF930F2EF0E6EF2EF0E0FF2EF02DD12C84
:1003C000D0E040E06D2F83E00E94B2008701C4E0DE
:1003D0006C2F83E00E94230181110EC0F801D080B0
:1003E0006C2F83E00E9423018823D1F38FE39CE9E3
:1003F0000197F1F700C00000CF5F0F5F1F4FC830BB
:1004000039F741E06D2F83E00E94B200DF5F94E096
:10041000E90EF11CD430A9F68D2DDF91CF911F91FB
:100420000F91FF90EF90DF900895CF93C82F40E099
:1004300061E081E00E94B20040E062E081E00E9461
:10044000B20040E063E081E00E94B2008BB39C2FD9
:10045000907F8F70892B8BBB41E063E081E00E942D
:10046000B2008FE99FE00197F1F700C0000040E083
:1004700063E081E00E94B2002BB330E1C39FC00172
:100480001124922F9F70892B8BBB41E063E081E0A8
:100490000E94B2008FE99FE00197F1F700C00000D1
:1004A00040E063E081E00E94B2008FE19EE40197AA
:1004B000F1F700C00000CF91089541E061E081E0D4
:1004C0000E94410041E062E081E00E94410041E081
:1004D00063E081E00E94410041E064E080E00E942E
:1004E000410041E065E080E00E94410041E066E0BB
:1004F00080E00E94410041E067E080E00E9441000E
:100500002FEF81EE94E0215080409040E1F700C051
:10051000000083E30E94150282E30E94150288E234
:100520000E9415028CE00E94150281E00E941502D3
:1005300086E00E94150282E00E9415020895CF9382
:10054000C82F41E061E081E00E94B20040E062E03B
:1005500081E00E94B20040E063E081E00E94B200CE
:100560008BB39C2F907F8F70892B8BBB41E063E016
:1005700081E00E94B2008FE99FE00197F1F700C08F
:10058000000040E063E081E00E94B2002BB330E164
:10059000C39FC0011124922F9F70892B8BBB41E018
:1005A00063E081E00E94B2008FE99FE00197F1F7DC
:1005B00000C0000040E063E081E00E94B2008FE1F3
:1005C0009EE40197F1F700C00000CF9108950E94CA
:1005D0005D020E9485010E94D2018823E1F30E94FE
:0805E0009F02F9CFF894FFCF50
:1005E8003132334134353642373839432A3023449F
:00000001FF
