S00E00004B65795061642E73726563D8
S11300000C942A000C943F000C943F000C943F0085
S11300100C943F000C943F000C943F000C943F0060
S11300200C943F000C943F000C943F000C943F0050
S11300300C943F000C943F000C943F000C943F0040
S11300400C943F000C943F000C943F000C943F0030
S11300500C943F0011241FBECFE5D8E0DEBFCDBF16
S113006010E0A0E6B0E0E8E7F5E002C005900D92EC
S1130070A037B107D9F70E94AF020C94BA020C94CE
S11300800000442379F1413009F05FC0813079F0F8
S113009028F08230A9F08330E1F008952AB381E09A
S11300A090E001C0880F6A95EAF7822B2CC027B331
S11300B081E090E001C0880F6A95EAF7822B2EC098
S11300C024B381E090E001C0880F6A95EAF7822B9F
S11300D030C021B381E090E001C0880F6A95EAF74F
S11300E0822B32C0813089F028F08230C9F083300D
S11300F011F108952AB381E090E001C0880F6A9558
S1130100EAF7809582238ABB089527B381E090E0C3
S113011001C0880F6A95EAF78095822387BB08950A
S113012024B381E090E001C0880F6A95EAF78095D6
S1130130822384BB089521B381E090E001C0880F3D
S11301406A95EAF78095822381BB0895442379F167
S1130150413009F05FC0813079F028F08230A9F095
S11301608330E1F008952BB381E090E001C0880F63
S11301706A95EAF7822B2CC028B381E090E001C095
S1130180880F6A95EAF7822B2EC025B381E090E0B0
S113019001C0880F6A95EAF7822B30C022B381E050
S11301A090E001C0880F6A95EAF7822B32C0813053
S11301B089F028F08230C9F0833011F108952BB30F
S11301C081E090E001C0880F6A95EAF78095822368
S11301D08BBB089528B381E090E001C0880F6A9535
S11301E0EAF78095822388BB089525B381E090E0E7
S11301F001C0880F6A95EAF78095822385BB08952C
S113020022B381E090E001C0880F6A95EAF78095F7
S1130210822382BB0895813049F030F0823041F06E
S1130220833079F480B305C089B303C086B301C0B9
S113023083B390E002C0959587956A95E2F7817043
S1130240089580E00895813081F028F08230B9F07B
S11302508330F9F008952BB381E090E001C0880F5A
S11302606A95EAF7822B8BBB089528B381E090E06E
S113027001C0880F6A95EAF7822B88BB089525B3DD
S113028081E090E001C0880F6A95EAF7822B85BB74
S1130290089522B381E090E001C0880F6A95EAF7DF
S11302A0822B82BB089541E060E083E00E9441001C
S11302B041E061E083E00E94410041E062E083E0CC
S11302C00E94410041E063E083E00E94410040E07D
S11302D064E083E00E94410040E065E083E00E9426
S11302E0410040E066E083E00E94410040E067E0B6
S11302F083E00E94410064E083E00E94230165E002
S113030083E00E94230166E083E00E94230167E00A
S113031083E00E94230141E060E083E00E94A600A4
S113032041E061E083E00E94A60041E062E083E0F6
S11303300E94A60041E063E083E00C94A600DF92F3
S1130340EF92FF920F931F93CF93DF9300E610E099
S1130350D12CC0E040E06C2F83E00E94A60078011D
S1130360D4E06D2F83E00E940B0181110EC0F701D0
S1130370D0806D2F83E00E940B018823D1F38FE19D
S11303809EE40197F1F700C00000DF5F94E0E90EFE
S1130390F11CD83031F741E06C2F83E00E94A600B5
S11303A0CF5F0F5F1F4FC430A9F68D2DDF91CF9122
S11303B01F910F91FF90EF90DF900895CF93C82F76
S11303C040E061E081E00E94A60040E062E081E05C
S11303D00E94A60040E063E081E00E94A6008BB387
S11303E09C2F907F8F70892B8BBB41E063E081E071
S11303F00E94A6008FE99FE00197F1F700C000007A
S113040040E063E081E00E94A6002BB330E1C39F8B
S1130410C0011124922F9F70892B8BBB41E063E0B4
S113042081E00E94A6008FE99FE00197F1F700C0E8
S1130430000040E063E081E00E94A6008FE19EE4BA
S11304400197F1F700C00000CF91089541E061E009
S113045081E00E94410041E062E081E00E944100AD
S113046041E063E081E00E94410041E064E080E01B
S11304700E94410041E065E080E00E94410041E0CB
S113048066E080E00E94410041E067E080E00E9475
S113049041002FEF81EE94E0215080409040E1F73D
S11304A000C0000083E30E94DE0182E30E94DE01BB
S11304B088E20E94DE018CE00E94DE0181E00E945D
S11304C0DE0186E00E94DE0182E00C94DE01CF931F
S11304D0C82F41E061E081E00E94A60040E062E0B4
S11304E081E00E94A60040E063E081E00E94A60053
S11304F08BB39C2F907F8F70892B8BBB41E063E083
S113050081E00E94A6008FE99FE00197F1F700C007
S1130510000040E063E081E00E94A6002BB330E1DC
S1130520C39FC0011124922F9F70892B8BBB41E084
S113053063E081E00E94A6008FE99FE00197F1F754
S113054000C0000040E063E081E00E94A6008FE16B
S11305509EE40197F1F700C00000CF9108950E9436
S113056026020E9453010E949F018823E1F30E9406
S10B05706702F9CFF894FFCFF4
S11305783738392F3435362A3132332D63303D2B11
S9030000FC
